{
  "_format": "hh-sol-artifact-1",
  "contractName": "TokenFactory",
  "sourceName": "contracts/TokenFactory.sol",
  "abi": [
    {
      "anonymous": false,
      "inputs": [
        {
          "indexed": false,
          "internalType": "string",
          "name": "token_name",
          "type": "string"
        },
        {
          "indexed": false,
          "internalType": "string",
          "name": "token_symbol",
          "type": "string"
        },
        {
          "indexed": false,
          "internalType": "uint256",
          "name": "token_initial_supply",
          "type": "uint256"
        },
        {
          "indexed": false,
          "internalType": "address",
          "name": "token_deployer_owner",
          "type": "address"
        }
      ],
      "name": "TokenDeployed",
      "type": "event"
    },
    {
      "inputs": [
        {
          "internalType": "string",
          "name": "token_name",
          "type": "string"
        },
        {
          "internalType": "string",
          "name": "token_symbol",
          "type": "string"
        },
        {
          "internalType": "uint256",
          "name": "initial_supply",
          "type": "uint256"
        }
      ],
      "name": "createToken",
      "outputs": [
        {
          "internalType": "address",
          "name": "token",
          "type": "address"
        }
      ],
      "stateMutability": "nonpayable",
      "type": "function"
    }
  ],
  "bytecode": "0x608060405234801561001057600080fd5b50611d88806100206000396000f3fe60806040523480156200001157600080fd5b50600436106200002e5760003560e01c80635b0605301462000033575b600080fd5b6200004a6200004436600462000315565b62000066565b6040516001600160a01b03909116815260200160405180910390f35b6000336200007481620001a7565b60006040518060200162000088906200025c565b601f1982820381018352601f909101166040819052620000b3908890889088908790602001620003dd565b60408051601f1981840301815290829052620000d3929160200162000428565b6040516020818303038152906040529050620000ef81620001f4565b80516020820134f092506200010483620001a7565b6001600160a01b0383166200015f5760405162461bcd60e51b815260206004820152601b60248201527f4661696c656420746f206465706c6f79206120636f6e74726163740000000000604482015260640160405180910390fd5b7f167f2b06d5846856e477204ded4d541878475ead9f560674c189d13261a26ca886868685604051620001969493929190620003dd565b60405180910390a150509392505050565b6040516001600160a01b0382166024820152620001f19060440160408051601f198184030181529190526020810180516001600160e01b031663161765e160e11b17905262000236565b50565b620001f1816040516024016200020b91906200045b565b60408051601f198184030181529190526020810180516001600160e01b03166305f3bfab60e11b1790525b620001f18160006a636f6e736f6c652e6c6f679050600080835160208501845afa505050565b6118db806200047883390190565b634e487b7160e01b600052604160045260246000fd5b600082601f8301126200029257600080fd5b813567ffffffffffffffff80821115620002b057620002b06200026a565b604051601f8301601f19908116603f01168101908282118183101715620002db57620002db6200026a565b81604052838152866020858801011115620002f557600080fd5b836020870160208301376000602085830101528094505050505092915050565b6000806000606084860312156200032b57600080fd5b833567ffffffffffffffff808211156200034457600080fd5b620003528783880162000280565b945060208601359150808211156200036957600080fd5b50620003788682870162000280565b925050604084013590509250925092565b60005b83811015620003a65781810151838201526020016200038c565b50506000910152565b60008151808452620003c981602086016020860162000389565b601f01601f19169290920160200192915050565b608081526000620003f26080830187620003af565b8281036020840152620004068187620003af565b604084019590955250506001600160a01b039190911660609091015292915050565b600083516200043c81846020880162000389565b8351908301906200045281836020880162000389565b01949350505050565b602081526000620004706020830184620003af565b939250505056fe6101606040523480156200001257600080fd5b50604051620018db380380620018db8339810160408190526200003591620004a1565b6040805180820190915260018152603160f81b6020820152849081908382876003620000628382620005c7565b506004620000718282620005c7565b5050506001600160a01b038116620000a457604051631e4fbdf760e01b8152600060048201526024015b60405180910390fd5b620000af8162000195565b50620000bd826006620001e7565b61012052620000ce816007620001e7565b61014052815160208084019190912060e052815190820120610100524660a0526200015c60e05161010051604080517f8b73c3c69bb8fe3d512ecc4cf759cc79239f7b179b0ffacaa9a75d522b39400f60208201529081019290925260608201524660808201523060a082015260009060c00160405160208183030381529060405280519060200120905090565b60805250503060c052506200018b81620001796009600a620007a6565b620001859085620007be565b62000220565b5050505062000848565b600580546001600160a01b038381166001600160a01b0319831681179093556040519116919082907f8be0079c531659141344cd1fd0a4f28419497f9722a3daafe3b4186f6b6457e090600090a35050565b60006020835110156200020757620001ff836200025e565b90506200021a565b81620002148482620005c7565b5060ff90505b92915050565b6001600160a01b0382166200024c5760405163ec442f0560e01b8152600060048201526024016200009b565b6200025a60008383620002a1565b5050565b600080829050601f815111156200028c578260405163305a27a960e01b81526004016200009b9190620007d8565b805162000299826200080d565b179392505050565b6001600160a01b038316620002d0578060026000828254620002c4919062000832565b90915550620003449050565b6001600160a01b03831660009081526020819052604090205481811015620003255760405163391434e360e21b81526001600160a01b038516600482015260248101829052604481018390526064016200009b565b6001600160a01b03841660009081526020819052604090209082900390555b6001600160a01b038216620003625760028054829003905562000381565b6001600160a01b03821660009081526020819052604090208054820190555b816001600160a01b0316836001600160a01b03167fddf252ad1be2c89b69c2b068fc378daa952ba7f163c4a11628f55a4df523b3ef83604051620003c791815260200190565b60405180910390a3505050565b634e487b7160e01b600052604160045260246000fd5b60005b8381101562000407578181015183820152602001620003ed565b50506000910152565b600082601f8301126200042257600080fd5b81516001600160401b03808211156200043f576200043f620003d4565b604051601f8301601f19908116603f011681019082821181831017156200046a576200046a620003d4565b816040528381528660208588010111156200048457600080fd5b62000497846020830160208901620003ea565b9695505050505050565b60008060008060808587031215620004b857600080fd5b84516001600160401b0380821115620004d057600080fd5b620004de8883890162000410565b95506020870151915080821115620004f557600080fd5b50620005048782880162000410565b60408701516060880151919550935090506001600160a01b03811681146200052b57600080fd5b939692955090935050565b600181811c908216806200054b57607f821691505b6020821081036200056c57634e487b7160e01b600052602260045260246000fd5b50919050565b601f821115620005c2576000816000526020600020601f850160051c810160208610156200059d5750805b601f850160051c820191505b81811015620005be57828155600101620005a9565b5050505b505050565b81516001600160401b03811115620005e357620005e3620003d4565b620005fb81620005f4845462000536565b8462000572565b602080601f8311600181146200063357600084156200061a5750858301515b600019600386901b1c1916600185901b178555620005be565b600085815260208120601f198616915b82811015620006645788860151825594840194600190910190840162000643565b5085821015620006835787850151600019600388901b60f8161c191681555b5050505050600190811b01905550565b634e487b7160e01b600052601160045260246000fd5b600181815b80851115620006ea578160001904821115620006ce57620006ce62000693565b80851615620006dc57918102915b93841c9390800290620006ae565b509250929050565b60008262000703575060016200021a565b8162000712575060006200021a565b81600181146200072b5760028114620007365762000756565b60019150506200021a565b60ff8411156200074a576200074a62000693565b50506001821b6200021a565b5060208310610133831016604e8410600b84101617156200077b575081810a6200021a565b620007878383620006a9565b80600019048211156200079e576200079e62000693565b029392505050565b6000620007b760ff841683620006f2565b9392505050565b80820281158282048414176200021a576200021a62000693565b6020815260008251806020840152620007f9816040850160208701620003ea565b601f01601f19169190910160400192915050565b805160208083015191908110156200056c5760001960209190910360031b1b16919050565b808201808211156200021a576200021a62000693565b60805160a05160c05160e051610100516101205161014051611038620008a360003960006108370152600061080a015260006107330152600061070b0152600061066601526000610690015260006106ba01526110386000f3fe608060405234801561001057600080fd5b50600436106101005760003560e01c80637ecebe0011610097578063a9059cbb11610066578063a9059cbb14610206578063d505accf14610219578063dd62ed3e1461022c578063f2fde38b1461026557600080fd5b80637ecebe00146101b557806384b0196e146101c85780638da5cb5b146101e357806395d89b41146101fe57600080fd5b8063313ce567116100d3578063313ce5671461016b5780633644e5151461017a57806370a0823114610182578063715018a6146101ab57600080fd5b806306fdde0314610105578063095ea7b31461012357806318160ddd1461014657806323b872dd14610158575b600080fd5b61010d610278565b60405161011a9190610d9b565b60405180910390f35b610136610131366004610dd1565b61030a565b604051901515815260200161011a565b6002545b60405190815260200161011a565b610136610166366004610dfb565b610324565b6040516009815260200161011a565b61014a610348565b61014a610190366004610e37565b6001600160a01b031660009081526020819052604090205490565b6101b3610357565b005b61014a6101c3366004610e37565b61036b565b6101d0610389565b60405161011a9796959493929190610e52565b6005546040516001600160a01b03909116815260200161011a565b61010d6103cf565b610136610214366004610dd1565b6103de565b6101b3610227366004610eeb565b6103ec565b61014a61023a366004610f5e565b6001600160a01b03918216600090815260016020908152604080832093909416825291909152205490565b6101b3610273366004610e37565b61052b565b60606003805461028790610f91565b80601f01602080910402602001604051908101604052809291908181526020018280546102b390610f91565b80156103005780601f106102d557610100808354040283529160200191610300565b820191906000526020600020905b8154815290600101906020018083116102e357829003601f168201915b5050505050905090565b600033610318818585610569565b60019150505b92915050565b60003361033285828561057b565b61033d8585856105fa565b506001949350505050565b6000610352610659565b905090565b61035f610784565b61036960006107b1565b565b6001600160a01b03811660009081526008602052604081205461031e565b60006060806000806000606061039d610803565b6103a5610830565b60408051600080825260208201909252600f60f81b9b939a50919850469750309650945092509050565b60606004805461028790610f91565b6000336103188185856105fa565b834211156104155760405163313c898160e11b8152600481018590526024015b60405180910390fd5b60007f6e71edae12b1b97f4d1f60370fef10105fa2faae0126114a169c64845d6126c98888886104628c6001600160a01b0316600090815260086020526040902080546001810190915590565b6040805160208101969096526001600160a01b0394851690860152929091166060840152608083015260a082015260c0810186905260e00160405160208183030381529060405280519060200120905060006104bd8261085d565b905060006104cd8287878761088a565b9050896001600160a01b0316816001600160a01b031614610514576040516325c0072360e11b81526001600160a01b0380831660048301528b16602482015260440161040c565b61051f8a8a8a610569565b50505050505050505050565b610533610784565b6001600160a01b03811661055d57604051631e4fbdf760e01b81526000600482015260240161040c565b610566816107b1565b50565b61057683838360016108b8565b505050565b6001600160a01b038381166000908152600160209081526040808320938616835292905220546000198110156105f457818110156105e557604051637dc7a0d960e11b81526001600160a01b0384166004820152602481018290526044810183905260640161040c565b6105f4848484840360006108b8565b50505050565b6001600160a01b03831661062457604051634b637e8f60e11b81526000600482015260240161040c565b6001600160a01b03821661064e5760405163ec442f0560e01b81526000600482015260240161040c565b61057683838361098d565b6000306001600160a01b037f0000000000000000000000000000000000000000000000000000000000000000161480156106b257507f000000000000000000000000000000000000000000000000000000000000000046145b156106dc57507f000000000000000000000000000000000000000000000000000000000000000090565b610352604080517f8b73c3c69bb8fe3d512ecc4cf759cc79239f7b179b0ffacaa9a75d522b39400f60208201527f0000000000000000000000000000000000000000000000000000000000000000918101919091527f000000000000000000000000000000000000000000000000000000000000000060608201524660808201523060a082015260009060c00160405160208183030381529060405280519060200120905090565b6005546001600160a01b031633146103695760405163118cdaa760e01b815233600482015260240161040c565b600580546001600160a01b038381166001600160a01b0319831681179093556040519116919082907f8be0079c531659141344cd1fd0a4f28419497f9722a3daafe3b4186f6b6457e090600090a35050565b60606103527f00000000000000000000000000000000000000000000000000000000000000006006610ab7565b60606103527f00000000000000000000000000000000000000000000000000000000000000006007610ab7565b600061031e61086a610659565b8360405161190160f01b8152600281019290925260228201526042902090565b60008060008061089c88888888610b62565b9250925092506108ac8282610c31565b50909695505050505050565b6001600160a01b0384166108e25760405163e602df0560e01b81526000600482015260240161040c565b6001600160a01b03831661090c57604051634a1406b160e11b81526000600482015260240161040c565b6001600160a01b03808516600090815260016020908152604080832093871683529290522082905580156105f457826001600160a01b0316846001600160a01b03167f8c5be1e5ebec7d5bd14f71427d1e84f3dd0314c0f7b2291e5b200ac8c7c3b9258460405161097f91815260200190565b60405180910390a350505050565b6001600160a01b0383166109b85780600260008282546109ad9190610fcb565b90915550610a2a9050565b6001600160a01b03831660009081526020819052604090205481811015610a0b5760405163391434e360e21b81526001600160a01b0385166004820152602481018290526044810183905260640161040c565b6001600160a01b03841660009081526020819052604090209082900390555b6001600160a01b038216610a4657600280548290039055610a65565b6001600160a01b03821660009081526020819052604090208054820190555b816001600160a01b0316836001600160a01b03167fddf252ad1be2c89b69c2b068fc378daa952ba7f163c4a11628f55a4df523b3ef83604051610aaa91815260200190565b60405180910390a3505050565b606060ff8314610ad157610aca83610cee565b905061031e565b818054610add90610f91565b80601f0160208091040260200160405190810160405280929190818152602001828054610b0990610f91565b8015610b565780601f10610b2b57610100808354040283529160200191610b56565b820191906000526020600020905b815481529060010190602001808311610b3957829003601f168201915b5050505050905061031e565b600080807f7fffffffffffffffffffffffffffffff5d576e7357a4501ddfe92f46681b20a0841115610b9d5750600091506003905082610c27565b604080516000808252602082018084528a905260ff891692820192909252606081018790526080810186905260019060a0016020604051602081039080840390855afa158015610bf1573d6000803e3d6000fd5b5050604051601f1901519150506001600160a01b038116610c1d57506000925060019150829050610c27565b9250600091508190505b9450945094915050565b6000826003811115610c4557610c45610fec565b03610c4e575050565b6001826003811115610c6257610c62610fec565b03610c805760405163f645eedf60e01b815260040160405180910390fd5b6002826003811115610c9457610c94610fec565b03610cb55760405163fce698f760e01b81526004810182905260240161040c565b6003826003811115610cc957610cc9610fec565b03610cea576040516335e2f38360e21b81526004810182905260240161040c565b5050565b60606000610cfb83610d2d565b604080516020808252818301909252919250600091906020820181803683375050509182525060208101929092525090565b600060ff8216601f81111561031e57604051632cd44ac360e21b815260040160405180910390fd5b6000815180845260005b81811015610d7b57602081850181015186830182015201610d5f565b506000602082860101526020601f19601f83011685010191505092915050565b602081526000610dae6020830184610d55565b9392505050565b80356001600160a01b0381168114610dcc57600080fd5b919050565b60008060408385031215610de457600080fd5b610ded83610db5565b946020939093013593505050565b600080600060608486031215610e1057600080fd5b610e1984610db5565b9250610e2760208501610db5565b9150604084013590509250925092565b600060208284031215610e4957600080fd5b610dae82610db5565b60ff60f81b881681526000602060e06020840152610e7360e084018a610d55565b8381036040850152610e85818a610d55565b606085018990526001600160a01b038816608086015260a0850187905284810360c08601528551808252602080880193509091019060005b81811015610ed957835183529284019291840191600101610ebd565b50909c9b505050505050505050505050565b600080600080600080600060e0888a031215610f0657600080fd5b610f0f88610db5565b9650610f1d60208901610db5565b95506040880135945060608801359350608088013560ff81168114610f4157600080fd5b9699959850939692959460a0840135945060c09093013592915050565b60008060408385031215610f7157600080fd5b610f7a83610db5565b9150610f8860208401610db5565b90509250929050565b600181811c90821680610fa557607f821691505b602082108103610fc557634e487b7160e01b600052602260045260246000fd5b50919050565b8082018082111561031e57634e487b7160e01b600052601160045260246000fd5b634e487b7160e01b600052602160045260246000fdfea2646970667358221220c555cde635212180ff6ca34c21490bd8f9dc4df6c12d6681603b214512d4c31764736f6c63430008160033a2646970667358221220d6a5c225901e4098554ff78c9e002f1d5ea4b17adf62ba0a310fd91f10b0c20564736f6c63430008160033",
  "linkReferences": {},
  "deployedLinkReferences": {}
}